{
  "_format": "hh-sol-artifact-1",
  "contractName": "Escrow",
  "sourceName": "contracts/Escrow.sol",
  "abi": [
    {
      "inputs": [
        {
          "internalType": "address",
          "name": "_buyer",
          "type": "address"
        },
        {
          "internalType": "address",
          "name": "_seller",
          "type": "address"
        },
        {
          "internalType": "uint256[]",
          "name": "_amounts",
          "type": "uint256[]"
        }
      ],
      "stateMutability": "nonpayable",
      "type": "constructor"
    },
    {
      "inputs": [
        {
          "internalType": "uint256",
          "name": "index",
          "type": "uint256"
        }
      ],
      "name": "approveMilestone",
      "outputs": [],
      "stateMutability": "nonpayable",
      "type": "function"
    },
    {
      "inputs": [],
      "name": "buyer",
      "outputs": [
        {
          "internalType": "address",
          "name": "",
          "type": "address"
        }
      ],
      "stateMutability": "view",
      "type": "function"
    },
    {
      "inputs": [
        {
          "internalType": "uint256",
          "name": "index",
          "type": "uint256"
        }
      ],
      "name": "fundMilestone",
      "outputs": [],
      "stateMutability": "payable",
      "type": "function"
    },
    {
      "inputs": [],
      "name": "isComplete",
      "outputs": [
        {
          "internalType": "bool",
          "name": "",
          "type": "bool"
        }
      ],
      "stateMutability": "view",
      "type": "function"
    },
    {
      "inputs": [
        {
          "internalType": "uint256",
          "name": "",
          "type": "uint256"
        }
      ],
      "name": "milestones",
      "outputs": [
        {
          "internalType": "uint256",
          "name": "amount",
          "type": "uint256"
        },
        {
          "internalType": "bool",
          "name": "funded",
          "type": "bool"
        },
        {
          "internalType": "bool",
          "name": "approved",
          "type": "bool"
        },
        {
          "internalType": "bool",
          "name": "released",
          "type": "bool"
        }
      ],
      "stateMutability": "view",
      "type": "function"
    },
    {
      "inputs": [],
      "name": "seller",
      "outputs": [
        {
          "internalType": "address",
          "name": "",
          "type": "address"
        }
      ],
      "stateMutability": "view",
      "type": "function"
    }
  ],
  "bytecode": "0x608060405234801561001057600080fd5b5060405161146038038061146083398181016040528101906100329190610530565b600073ffffffffffffffffffffffffffffffffffffffff168373ffffffffffffffffffffffffffffffffffffffff16036100a1576040517f08c379a0000000000000000000000000000000000000000000000000000000008152600401610098906105fc565b60405180910390fd5b600073ffffffffffffffffffffffffffffffffffffffff168273ffffffffffffffffffffffffffffffffffffffff1603610110576040517f08c379a000000000000000000000000000000000000000000000000000000000815260040161010790610668565b60405180910390fd5b6000815111610154576040517f08c379a000000000000000000000000000000000000000000000000000000000815260040161014b906106d4565b60405180910390fd5b826000806101000a81548173ffffffffffffffffffffffffffffffffffffffff021916908373ffffffffffffffffffffffffffffffffffffffff16021790555081600160006101000a81548173ffffffffffffffffffffffffffffffffffffffff021916908373ffffffffffffffffffffffffffffffffffffffff16021790555060005b81518110156103265760008282815181106101f6576101f56106f4565b5b60200260200101511161023e576040517f08c379a00000000000000000000000000000000000000000000000000000000081526004016102359061076f565b60405180910390fd5b6002604051806080016040528084848151811061025e5761025d6106f4565b5b602002602001015181526020016000151581526020016000151581526020016000151581525090806001815401808255809150506001900390600052602060002090600202016000909190919091506000820151816000015560208201518160010160006101000a81548160ff02191690831515021790555060408201518160010160016101000a81548160ff02191690831515021790555060608201518160010160026101000a81548160ff021916908315150217905550505080806001019150506101d8565b5050505061078f565b6000604051905090565b600080fd5b600080fd5b600073ffffffffffffffffffffffffffffffffffffffff82169050919050565b600061036e82610343565b9050919050565b61037e81610363565b811461038957600080fd5b50565b60008151905061039b81610375565b92915050565b600080fd5b6000601f19601f8301169050919050565b7f4e487b7100000000000000000000000000000000000000000000000000000000600052604160045260246000fd5b6103ef826103a6565b810181811067ffffffffffffffff8211171561040e5761040d6103b7565b5b80604052505050565b600061042161032f565b905061042d82826103e6565b919050565b600067ffffffffffffffff82111561044d5761044c6103b7565b5b602082029050602081019050919050565b600080fd5b6000819050919050565b61047681610463565b811461048157600080fd5b50565b6000815190506104938161046d565b92915050565b60006104ac6104a784610432565b610417565b905080838252602082019050602084028301858111156104cf576104ce61045e565b5b835b818110156104f857806104e48882610484565b8452602084019350506020810190506104d1565b5050509392505050565b600082601f830112610517576105166103a1565b5b8151610527848260208601610499565b91505092915050565b60008060006060848603121561054957610548610339565b5b60006105578682870161038c565b93505060206105688682870161038c565b925050604084015167ffffffffffffffff8111156105895761058861033e565b5b61059586828701610502565b9150509250925092565b600082825260208201905092915050565b7f496e76616c696420627579657200000000000000000000000000000000000000600082015250565b60006105e6600d8361059f565b91506105f1826105b0565b602082019050919050565b60006020820190508181036000830152610615816105d9565b9050919050565b7f496e76616c69642073656c6c6572000000000000000000000000000000000000600082015250565b6000610652600e8361059f565b915061065d8261061c565b602082019050919050565b6000602082019050818103600083015261068181610645565b9050919050565b7f4174206c65617374206f6e65206d696c6573746f6e6520726571756972656400600082015250565b60006106be601f8361059f565b91506106c982610688565b602082019050919050565b600060208201905081810360008301526106ed816106b1565b9050919050565b7f4e487b7100000000000000000000000000000000000000000000000000000000600052603260045260246000fd5b7f4d696c6573746f6e6520616d6f756e74206d757374206265203e203000000000600082015250565b6000610759601c8361059f565b915061076482610723565b602082019050919050565b600060208201905081810360008301526107888161074c565b9050919050565b610cc28061079e6000396000f3fe6080604052600436106100555760003560e01c806308551a531461005a5780637150d8ae1461008557806373a482e9146100b0578063b2fa1c9e146100cc578063c438b40f146100f7578063e89e4ed614610120575b600080fd5b34801561006657600080fd5b5061006f610160565b60405161007c9190610773565b60405180910390f35b34801561009157600080fd5b5061009a610186565b6040516100a79190610773565b60405180910390f35b6100ca60048036038101906100c591906107c9565b6101aa565b005b3480156100d857600080fd5b506100e161035e565b6040516100ee9190610811565b60405180910390f35b34801561010357600080fd5b5061011e600480360381019061011991906107c9565b6103ca565b005b34801561012c57600080fd5b50610147600480360381019061014291906107c9565b6106cb565b604051610157949392919061083b565b60405180910390f35b600160009054906101000a900473ffffffffffffffffffffffffffffffffffffffff1681565b60008054906101000a900473ffffffffffffffffffffffffffffffffffffffff1681565b60008054906101000a900473ffffffffffffffffffffffffffffffffffffffff1673ffffffffffffffffffffffffffffffffffffffff163373ffffffffffffffffffffffffffffffffffffffff1614610238576040517f08c379a000000000000000000000000000000000000000000000000000000000815260040161022f90610903565b60405180910390fd5b600280549050811061027f576040517f08c379a00000000000000000000000000000000000000000000000000000000081526004016102769061096f565b60405180910390fd5b6000600282815481106102955761029461098f565b5b906000526020600020906002020190508060010160009054906101000a900460ff16156102f7576040517f08c379a00000000000000000000000000000000000000000000000000000000081526004016102ee90610a0a565b60405180910390fd5b8060000154341461033d576040517f08c379a000000000000000000000000000000000000000000000000000000000815260040161033490610a76565b60405180910390fd5b60018160010160006101000a81548160ff0219169083151502179055505050565b600080600090505b6002805490508110156103c157600281815481106103875761038661098f565b5b906000526020600020906002020160010160029054906101000a900460ff166103b45760009150506103c7565b8080600101915050610366565b50600190505b90565b60008054906101000a900473ffffffffffffffffffffffffffffffffffffffff1673ffffffffffffffffffffffffffffffffffffffff163373ffffffffffffffffffffffffffffffffffffffff1614610458576040517f08c379a000000000000000000000000000000000000000000000000000000000815260040161044f90610903565b60405180910390fd5b600280549050811061049f576040517f08c379a00000000000000000000000000000000000000000000000000000000081526004016104969061096f565b60405180910390fd5b6000600282815481106104b5576104b461098f565b5b906000526020600020906002020190508060010160009054906101000a900460ff16610516576040517f08c379a000000000000000000000000000000000000000000000000000000000815260040161050d90610ae2565b60405180910390fd5b8060010160019054906101000a900460ff1615610568576040517f08c379a000000000000000000000000000000000000000000000000000000000815260040161055f90610b4e565b60405180910390fd5b8060010160029054906101000a900460ff16156105ba576040517f08c379a00000000000000000000000000000000000000000000000000000000081526004016105b190610bba565b60405180910390fd5b60018160010160016101000a81548160ff02191690831515021790555060018160010160026101000a81548160ff0219169083151502179055506000600160009054906101000a900473ffffffffffffffffffffffffffffffffffffffff1673ffffffffffffffffffffffffffffffffffffffff16826000015460405161064090610c0b565b60006040518083038185875af1925050503d806000811461067d576040519150601f19603f3d011682016040523d82523d6000602084013e610682565b606091505b50509050806106c6576040517f08c379a00000000000000000000000000000000000000000000000000000000081526004016106bd90610c6c565b60405180910390fd5b505050565b600281815481106106db57600080fd5b90600052602060002090600202016000915090508060000154908060010160009054906101000a900460ff16908060010160019054906101000a900460ff16908060010160029054906101000a900460ff16905084565b600073ffffffffffffffffffffffffffffffffffffffff82169050919050565b600061075d82610732565b9050919050565b61076d81610752565b82525050565b60006020820190506107886000830184610764565b92915050565b600080fd5b6000819050919050565b6107a681610793565b81146107b157600080fd5b50565b6000813590506107c38161079d565b92915050565b6000602082840312156107df576107de61078e565b5b60006107ed848285016107b4565b91505092915050565b60008115159050919050565b61080b816107f6565b82525050565b60006020820190506108266000830184610802565b92915050565b61083581610793565b82525050565b6000608082019050610850600083018761082c565b61085d6020830186610802565b61086a6040830185610802565b6108776060830184610802565b95945050505050565b600082825260208201905092915050565b7f4f6e6c792062757965722063616e2063616c6c20746869732066756e6374696f60008201527f6e00000000000000000000000000000000000000000000000000000000000000602082015250565b60006108ed602183610880565b91506108f882610891565b604082019050919050565b6000602082019050818103600083015261091c816108e0565b9050919050565b7f496e76616c6964206d696c6573746f6e6520696e646578000000000000000000600082015250565b6000610959601783610880565b915061096482610923565b602082019050919050565b600060208201905081810360008301526109888161094c565b9050919050565b7f4e487b7100000000000000000000000000000000000000000000000000000000600052603260045260246000fd5b7f4d696c6573746f6e6520616c72656164792066756e6465640000000000000000600082015250565b60006109f4601883610880565b91506109ff826109be565b602082019050919050565b60006020820190508181036000830152610a23816109e7565b9050919050565b7f496e636f727265637420616d6f756e7400000000000000000000000000000000600082015250565b6000610a60601083610880565b9150610a6b82610a2a565b602082019050919050565b60006020820190508181036000830152610a8f81610a53565b9050919050565b7f4d696c6573746f6e65206e6f742066756e646564000000000000000000000000600082015250565b6000610acc601483610880565b9150610ad782610a96565b602082019050919050565b60006020820190508181036000830152610afb81610abf565b9050919050565b7f4d696c6573746f6e6520616c726561647920617070726f766564000000000000600082015250565b6000610b38601a83610880565b9150610b4382610b02565b602082019050919050565b60006020820190508181036000830152610b6781610b2b565b9050919050565b7f4d696c6573746f6e6520616c72656164792072656c6561736564000000000000600082015250565b6000610ba4601a83610880565b9150610baf82610b6e565b602082019050919050565b60006020820190508181036000830152610bd381610b97565b9050919050565b600081905092915050565b50565b6000610bf5600083610bda565b9150610c0082610be5565b600082019050919050565b6000610c1682610be8565b9150819050919050565b7f5472616e73666572206661696c65640000000000000000000000000000000000600082015250565b6000610c56600f83610880565b9150610c6182610c20565b602082019050919050565b60006020820190508181036000830152610c8581610c49565b905091905056fea26469706673582212205ac2c7e7a10396abdc7089fb94fa562bae7f5336474dbb2e58659574b6e2b6b464736f6c634300081c0033",
  "linkReferences": {},
  "deployedLinkReferences": {}
}